{
  "contractName": "ERC165",
  "abi": [
    {
      "inputs": [],
      "stateMutability": "nonpayable",
      "type": "constructor"
    },
    {
      "inputs": [
        {
          "internalType": "bytes4",
          "name": "interfaceId",
          "type": "bytes4"
        }
      ],
      "name": "supportsInterface",
      "outputs": [
        {
          "internalType": "bool",
          "name": "",
          "type": "bool"
        }
      ],
      "stateMutability": "view",
      "type": "function"
    },
    {
      "inputs": [
        {
          "internalType": "bytes4",
          "name": "interfaceId",
          "type": "bytes4"
        }
      ],
      "name": "_registerInterfaces",
      "outputs": [],
      "stateMutability": "nonpayable",
      "type": "function"
    }
  ],
  "bytecode": "0x608060405234801561001057600080fd5b506100407f01ffc9a7a5cef8baa21ed3c5c0d7e23accb804b619e9333b597f47a0d84076e261004560201b60201c565b610197565b63ffffffff60e01b817bffffffffffffffffffffffffffffffffffffffffffffffffffffffff191614156100ae576040517f08c379a00000000000000000000000000000000000000000000000000000000081526004016100a590610177565b60405180910390fd5b6001600080837bffffffffffffffffffffffffffffffffffffffffffffffffffffffff19167bffffffffffffffffffffffffffffffffffffffffffffffffffffffff1916815260200190815260200160002060006101000a81548160ff02191690831515021790555050565b600082825260208201905092915050565b7f4552433136353a20496e76616c696420496e7465726661636500000000000000600082015250565b600061016160198361011a565b915061016c8261012b565b602082019050919050565b6000602082019050818103600083015261019081610154565b9050919050565b610336806101a66000396000f3fe608060405234801561001057600080fd5b50600436106100365760003560e01c806301ffc9a71461003b57806367dc18b41461006b575b600080fd5b61005560048036038101906100509190610220565b610087565b6040516100629190610268565b60405180910390f35b61008560048036038101906100809190610220565b6100ee565b005b6000806000837bffffffffffffffffffffffffffffffffffffffffffffffffffffffff19167bffffffffffffffffffffffffffffffffffffffffffffffffffffffff1916815260200190815260200160002060009054906101000a900460ff169050919050565b63ffffffff60e01b817bffffffffffffffffffffffffffffffffffffffffffffffffffffffff19161415610157576040517f08c379a000000000000000000000000000000000000000000000000000000000815260040161014e906102e0565b60405180910390fd5b6001600080837bffffffffffffffffffffffffffffffffffffffffffffffffffffffff19167bffffffffffffffffffffffffffffffffffffffffffffffffffffffff1916815260200190815260200160002060006101000a81548160ff02191690831515021790555050565b600080fd5b60007fffffffff0000000000000000000000000000000000000000000000000000000082169050919050565b6101fd816101c8565b811461020857600080fd5b50565b60008135905061021a816101f4565b92915050565b600060208284031215610236576102356101c3565b5b60006102448482850161020b565b91505092915050565b60008115159050919050565b6102628161024d565b82525050565b600060208201905061027d6000830184610259565b92915050565b600082825260208201905092915050565b7f4552433136353a20496e76616c696420496e7465726661636500000000000000600082015250565b60006102ca601983610283565b91506102d582610294565b602082019050919050565b600060208201905081810360008301526102f9816102bd565b905091905056fea2646970667358221220b7ba14474922ed19740ccd0f10e370c8e59f80296da750e29617a75dc5c9c92b64736f6c63430008090033",
  "immutableReferences": {},
  "source": "// SPDX-License-Identifier: MIT\r\npragma solidity ^0.8.0;\r\n\r\nimport './interfaces/IERC165.sol';\r\n\r\n\r\ncontract ERC165 is IERC165{\r\n\r\n         // hash tables to  keep track of contract fingerbprint data of byte function conversions\r\n        mapping(bytes4 => bool) private _supportedInterfaces;\r\n        \r\n        constructor(){\r\n            _registerInterfaces(bytes4(keccak256('supportsInterface(bytes4)')));\r\n        }\r\n        \r\n\r\n        function supportsInterface(bytes4 interfaceId) external override view returns (bool){\r\n            return _supportedInterfaces[interfaceId];\r\n        }\r\n\r\n        //registering the interface (comes from within)\r\n        function _registerInterfaces(bytes4 interfaceId) public {\r\n            require(interfaceId != 0xffffffff, 'ERC165: Invalid Interface');\r\n            _supportedInterfaces[interfaceId] = true;\r\n\r\n        }\r\n    \r\n\r\n}",
  "sourcePath": "D:\\Programmation\\Blockchain\\nft-marketplace-starter-kit-main\\src\\contracts\\ERC165.sol",
  "compiler": {
    "name": "solc",
    "version": "0.8.9+commit.e5eed63a.Emscripten.clang"
  },
  "schemaVersion": "3.4.3",
  "updatedAt": "2021-10-12T15:42:47.008Z",
  "devdoc": {
    "kind": "dev",
    "methods": {},
    "version": 1
  },
  "userdoc": {
    "kind": "user",
    "methods": {},
    "version": 1
  }
}