{
  "contractName": "ERC721Enumerable",
  "abi": [
    {
      "inputs": [],
      "stateMutability": "nonpayable",
      "type": "constructor"
    },
    {
      "anonymous": false,
      "inputs": [
        {
          "indexed": true,
          "internalType": "address",
          "name": "_owner",
          "type": "address"
        },
        {
          "indexed": true,
          "internalType": "address",
          "name": "_approved",
          "type": "address"
        },
        {
          "indexed": true,
          "internalType": "uint256",
          "name": "_tokenId",
          "type": "uint256"
        }
      ],
      "name": "Approval",
      "type": "event"
    },
    {
      "anonymous": false,
      "inputs": [
        {
          "indexed": true,
          "internalType": "address",
          "name": "_from",
          "type": "address"
        },
        {
          "indexed": true,
          "internalType": "address",
          "name": "_to",
          "type": "address"
        },
        {
          "indexed": true,
          "internalType": "uint256",
          "name": "_tokenId",
          "type": "uint256"
        }
      ],
      "name": "Transfer",
      "type": "event"
    },
    {
      "inputs": [
        {
          "internalType": "bytes4",
          "name": "interfaceId",
          "type": "bytes4"
        }
      ],
      "name": "_registerInterfaces",
      "outputs": [],
      "stateMutability": "nonpayable",
      "type": "function"
    },
    {
      "inputs": [
        {
          "internalType": "address",
          "name": "_to",
          "type": "address"
        },
        {
          "internalType": "uint256",
          "name": "tokenId",
          "type": "uint256"
        }
      ],
      "name": "approval",
      "outputs": [],
      "stateMutability": "nonpayable",
      "type": "function"
    },
    {
      "inputs": [
        {
          "internalType": "address",
          "name": "_owner",
          "type": "address"
        }
      ],
      "name": "balanceOf",
      "outputs": [
        {
          "internalType": "uint256",
          "name": "",
          "type": "uint256"
        }
      ],
      "stateMutability": "view",
      "type": "function"
    },
    {
      "inputs": [
        {
          "internalType": "uint256",
          "name": "_tokenId",
          "type": "uint256"
        }
      ],
      "name": "ownerOf",
      "outputs": [
        {
          "internalType": "address",
          "name": "",
          "type": "address"
        }
      ],
      "stateMutability": "view",
      "type": "function"
    },
    {
      "inputs": [
        {
          "internalType": "bytes4",
          "name": "interfaceId",
          "type": "bytes4"
        }
      ],
      "name": "supportsInterface",
      "outputs": [
        {
          "internalType": "bool",
          "name": "",
          "type": "bool"
        }
      ],
      "stateMutability": "view",
      "type": "function"
    },
    {
      "inputs": [
        {
          "internalType": "address",
          "name": "_from",
          "type": "address"
        },
        {
          "internalType": "address",
          "name": "_to",
          "type": "address"
        },
        {
          "internalType": "uint256",
          "name": "_tokenId",
          "type": "uint256"
        }
      ],
      "name": "transferFrom",
      "outputs": [],
      "stateMutability": "nonpayable",
      "type": "function"
    },
    {
      "inputs": [
        {
          "internalType": "uint256",
          "name": "index",
          "type": "uint256"
        }
      ],
      "name": "tokenByIndex",
      "outputs": [
        {
          "internalType": "uint256",
          "name": "",
          "type": "uint256"
        }
      ],
      "stateMutability": "view",
      "type": "function"
    },
    {
      "inputs": [
        {
          "internalType": "address",
          "name": "owner",
          "type": "address"
        },
        {
          "internalType": "uint256",
          "name": "index",
          "type": "uint256"
        }
      ],
      "name": "tokenOfOwnerByIndex",
      "outputs": [
        {
          "internalType": "uint256",
          "name": "",
          "type": "uint256"
        }
      ],
      "stateMutability": "view",
      "type": "function"
    },
    {
      "inputs": [],
      "name": "totalSupply",
      "outputs": [
        {
          "internalType": "uint256",
          "name": "",
          "type": "uint256"
        }
      ],
      "stateMutability": "view",
      "type": "function"
    }
  ],
  "bytecode": "0x60806040523480156200001157600080fd5b50620000437f01ffc9a7a5cef8baa21ed3c5c0d7e23accb804b619e9333b597f47a0d84076e26200013360201b60201c565b620000b87f22c82707ba960a14c7592ffb6b8cfaa073fed0048a84cc7fa41f6b5bd8e7f2e47f3a6eb71757dfc6e784c1459d26270140c2c147d95ca985c80026fc5301c3eca17f8a7e378434598edc36d108689a030cbc9d7d465de4f74c71bae1028eed6a881b18186200013360201b60201c565b6200012d7fc53637662700e6c65104059db8bba34439e0c32483ab7c34e3ccae52c73954957f8230223f691b981717299fae9549350a0d894555723531f02108b1f522c1a7977f6da5e1284143cdd2d15038a59bde3be031250f00291d64494c12d967b3a4e0c318186200013360201b60201c565b6200028e565b63ffffffff60e01b817bffffffffffffffffffffffffffffffffffffffffffffffffffffffff191614156200019f576040517f08c379a000000000000000000000000000000000000000000000000000000000815260040162000196906200026c565b60405180910390fd5b6001600080837bffffffffffffffffffffffffffffffffffffffffffffffffffffffff19167bffffffffffffffffffffffffffffffffffffffffffffffffffffffff1916815260200190815260200160002060006101000a81548160ff02191690831515021790555050565b600082825260208201905092915050565b7f4552433136353a20496e76616c696420496e7465726661636500000000000000600082015250565b6000620002546019836200020b565b915062000261826200021c565b602082019050919050565b60006020820190508181036000830152620002878162000245565b9050919050565b611368806200029e6000396000f3fe608060405234801561001057600080fd5b50600436106100935760003560e01c80634f6ccce7116100665780634f6ccce7146101325780636352211e1461016257806367dc18b41461019257806370a08231146101ae57806375247a58146101de57610093565b806301ffc9a71461009857806318160ddd146100c857806323b872dd146100e65780632f745c5914610102575b600080fd5b6100b260048036038101906100ad9190610b31565b6101fa565b6040516100bf9190610b79565b60405180910390f35b6100d0610261565b6040516100dd9190610bad565b60405180910390f35b61010060048036038101906100fb9190610c52565b61026e565b005b61011c60048036038101906101179190610ca5565b610291565b6040516101299190610bad565b60405180910390f35b61014c60048036038101906101479190610ce5565b610341565b6040516101599190610bad565b60405180910390f35b61017c60048036038101906101779190610ce5565b6103b2565b6040516101899190610d21565b60405180910390f35b6101ac60048036038101906101a79190610b31565b610464565b005b6101c860048036038101906101c39190610d3c565b610539565b6040516101d59190610bad565b60405180910390f35b6101f860048036038101906101f39190610ca5565b6105f1565b005b6000806000837bffffffffffffffffffffffffffffffffffffffffffffffffffffffff19167bffffffffffffffffffffffffffffffffffffffffffffffffffffffff1916815260200190815260200160002060009054906101000a900460ff169050919050565b6000600480549050905090565b610278338261078d565b61028157600080fd5b61028c83838361081c565b505050565b600061029c83610539565b82106102dd576040517f08c379a00000000000000000000000000000000000000000000000000000000081526004016102d490610dc6565b60405180910390fd5b600660008473ffffffffffffffffffffffffffffffffffffffff1673ffffffffffffffffffffffffffffffffffffffff168152602001908152602001600020828154811061032e5761032d610de6565b5b9060005260206000200154905092915050565b600061034b610261565b821061038c576040517f08c379a000000000000000000000000000000000000000000000000000000000815260040161038390610e61565b60405180910390fd5b600482815481106103a05761039f610de6565b5b90600052602060002001549050919050565b6000806001600084815260200190815260200160002060009054906101000a900473ffffffffffffffffffffffffffffffffffffffff169050600073ffffffffffffffffffffffffffffffffffffffff168173ffffffffffffffffffffffffffffffffffffffff16141561045b576040517f08c379a000000000000000000000000000000000000000000000000000000000815260040161045290610ecd565b60405180910390fd5b80915050919050565b63ffffffff60e01b817bffffffffffffffffffffffffffffffffffffffffffffffffffffffff191614156104cd576040517f08c379a00000000000000000000000000000000000000000000000000000000081526004016104c490610f39565b60405180910390fd5b6001600080837bffffffffffffffffffffffffffffffffffffffffffffffffffffffff19167bffffffffffffffffffffffffffffffffffffffffffffffffffffffff1916815260200190815260200160002060006101000a81548160ff02191690831515021790555050565b60008073ffffffffffffffffffffffffffffffffffffffff168273ffffffffffffffffffffffffffffffffffffffff1614156105aa576040517f08c379a00000000000000000000000000000000000000000000000000000000081526004016105a190610fcb565b60405180910390fd5b600260008373ffffffffffffffffffffffffffffffffffffffff1673ffffffffffffffffffffffffffffffffffffffff168152602001908152602001600020549050919050565b60006105fc826103b2565b90508073ffffffffffffffffffffffffffffffffffffffff168373ffffffffffffffffffffffffffffffffffffffff16141561066d576040517f08c379a000000000000000000000000000000000000000000000000000000000815260040161066490611037565b60405180910390fd5b8073ffffffffffffffffffffffffffffffffffffffff163373ffffffffffffffffffffffffffffffffffffffff16146106db576040517f08c379a00000000000000000000000000000000000000000000000000000000081526004016106d2906110c9565b60405180910390fd5b826003600084815260200190815260200160002060006101000a81548173ffffffffffffffffffffffffffffffffffffffff021916908373ffffffffffffffffffffffffffffffffffffffff160217905550818373ffffffffffffffffffffffffffffffffffffffff168273ffffffffffffffffffffffffffffffffffffffff167f8c5be1e5ebec7d5bd14f71427d1e84f3dd0314c0f7b2291e5b200ac8c7c3b92560405160405180910390a4505050565b600061079882610a62565b6107d7576040517f08c379a00000000000000000000000000000000000000000000000000000000081526004016107ce90611135565b60405180910390fd5b60006107e2836103b2565b90508073ffffffffffffffffffffffffffffffffffffffff168473ffffffffffffffffffffffffffffffffffffffff161491505092915050565b600073ffffffffffffffffffffffffffffffffffffffff168273ffffffffffffffffffffffffffffffffffffffff16141561088c576040517f08c379a0000000000000000000000000000000000000000000000000000000008152600401610883906111c7565b60405180910390fd5b8273ffffffffffffffffffffffffffffffffffffffff166108ac826103b2565b73ffffffffffffffffffffffffffffffffffffffff1614610902576040517f08c379a00000000000000000000000000000000000000000000000000000000081526004016108f990611259565b60405180910390fd5b6001600260008573ffffffffffffffffffffffffffffffffffffffff1673ffffffffffffffffffffffffffffffffffffffff168152602001908152602001600020600082825461095291906112a8565b925050819055506001600260008473ffffffffffffffffffffffffffffffffffffffff1673ffffffffffffffffffffffffffffffffffffffff16815260200190815260200160002060008282546109a991906112dc565b92505081905550816001600083815260200190815260200160002060006101000a81548173ffffffffffffffffffffffffffffffffffffffff021916908373ffffffffffffffffffffffffffffffffffffffff160217905550808273ffffffffffffffffffffffffffffffffffffffff168473ffffffffffffffffffffffffffffffffffffffff167fddf252ad1be2c89b69c2b068fc378daa952ba7f163c4a11628f55a4df523b3ef60405160405180910390a4505050565b6000806001600084815260200190815260200160002060009054906101000a900473ffffffffffffffffffffffffffffffffffffffff169050600073ffffffffffffffffffffffffffffffffffffffff168173ffffffffffffffffffffffffffffffffffffffff161415915050919050565b600080fd5b60007fffffffff0000000000000000000000000000000000000000000000000000000082169050919050565b610b0e81610ad9565b8114610b1957600080fd5b50565b600081359050610b2b81610b05565b92915050565b600060208284031215610b4757610b46610ad4565b5b6000610b5584828501610b1c565b91505092915050565b60008115159050919050565b610b7381610b5e565b82525050565b6000602082019050610b8e6000830184610b6a565b92915050565b6000819050919050565b610ba781610b94565b82525050565b6000602082019050610bc26000830184610b9e565b92915050565b600073ffffffffffffffffffffffffffffffffffffffff82169050919050565b6000610bf382610bc8565b9050919050565b610c0381610be8565b8114610c0e57600080fd5b50565b600081359050610c2081610bfa565b92915050565b610c2f81610b94565b8114610c3a57600080fd5b50565b600081359050610c4c81610c26565b92915050565b600080600060608486031215610c6b57610c6a610ad4565b5b6000610c7986828701610c11565b9350506020610c8a86828701610c11565b9250506040610c9b86828701610c3d565b9150509250925092565b60008060408385031215610cbc57610cbb610ad4565b5b6000610cca85828601610c11565b9250506020610cdb85828601610c3d565b9150509250929050565b600060208284031215610cfb57610cfa610ad4565b5b6000610d0984828501610c3d565b91505092915050565b610d1b81610be8565b82525050565b6000602082019050610d366000830184610d12565b92915050565b600060208284031215610d5257610d51610ad4565b5b6000610d6084828501610c11565b91505092915050565b600082825260208201905092915050565b7f6f776e657220696e646578206973206f7574206f6620626f756e647300000000600082015250565b6000610db0601c83610d69565b9150610dbb82610d7a565b602082019050919050565b60006020820190508181036000830152610ddf81610da3565b9050919050565b7f4e487b7100000000000000000000000000000000000000000000000000000000600052603260045260246000fd5b7f676c6f62616c20696e646578206973206f7574206f6620626f756e6473000000600082015250565b6000610e4b601d83610d69565b9150610e5682610e15565b602082019050919050565b60006020820190508181036000830152610e7a81610e3e565b9050919050565b7f4552433732313a2061646472657373206f776e657220696e76616c6964000000600082015250565b6000610eb7601d83610d69565b9150610ec282610e81565b602082019050919050565b60006020820190508181036000830152610ee681610eaa565b9050919050565b7f4552433136353a20496e76616c696420496e7465726661636500000000000000600082015250565b6000610f23601983610d69565b9150610f2e82610eed565b602082019050919050565b60006020820190508181036000830152610f5281610f16565b9050919050565b7f4552433732313a206f776e657220717565727920666f72206e6f6e2d6578697360008201527f74656e7420746f6b656e00000000000000000000000000000000000000000000602082015250565b6000610fb5602a83610d69565b9150610fc082610f59565b604082019050919050565b60006020820190508181036000830152610fe481610fa8565b9050919050565b7f4572726f722c20617070726f76616c20746f2063757272656e74206f776e6572600082015250565b6000611021602083610d69565b915061102c82610feb565b602082019050919050565b6000602082019050818103600083015261105081611014565b9050919050565b7f43757272656e742063616c6c6572206973206e6f7420746865206f776e65722060008201527f6f6620746f6b656e000000000000000000000000000000000000000000000000602082015250565b60006110b3602883610d69565b91506110be82611057565b604082019050919050565b600060208201905081810360008301526110e2816110a6565b9050919050565b7f546f6b656e20646f65736e277420657869737400000000000000000000000000600082015250565b600061111f601383610d69565b915061112a826110e9565b602082019050919050565b6000602082019050818103600083015261114e81611112565b9050919050565b7f4572726f72202d20455243373231205472616e7366657220746f20746865207a60008201527f65726f2061646472657373000000000000000000000000000000000000000000602082015250565b60006111b1602b83610d69565b91506111bc82611155565b604082019050919050565b600060208201905081810360008301526111e0816111a4565b9050919050565b7f547279696e6720746f207472616e73666572206120746f6b656e20746865206160008201527f646472657373206e6f74202e2e2e000000000000000000000000000000000000602082015250565b6000611243602e83610d69565b915061124e826111e7565b604082019050919050565b6000602082019050818103600083015261127281611236565b9050919050565b7f4e487b7100000000000000000000000000000000000000000000000000000000600052601160045260246000fd5b60006112b382610b94565b91506112be83610b94565b9250828210156112d1576112d0611279565b5b828203905092915050565b60006112e782610b94565b91506112f283610b94565b9250827fffffffffffffffffffffffffffffffffffffffffffffffffffffffffffffffff0382111561132757611326611279565b5b82820190509291505056fea2646970667358221220bac9a0fd1ae707c633987f5286e32a828692b24e21ed539a23b43a018593c0be64736f6c63430008090033",
  "immutableReferences": {},
  "source": "// SPDX-License-Identifier: MIT\r\npragma solidity ^0.8.0;\r\n\r\nimport './ERC721.sol';\r\nimport './interfaces/IERC721Enumerable.sol';\r\n\r\ncontract ERC721Enumerable is ERC721, IERC721Enumerable {\r\n\r\n    uint256[] private _allTokens;\r\n\r\n    //MAPPING from tokenId to position in _allTokens array\r\n    mapping(uint256 => uint256) private  _allTokensIndex;\r\n\r\n    // mapping of owner to list of all owner token ids\r\n    mapping(address => uint256[]) private _ownedTokens;\r\n\r\n    //mapping from token ID to  index of the owner tokens list\r\n    mapping(uint256 => uint256) private _ownedTokensIndex;\r\n\r\n\r\n    \r\n    constructor(){\r\n        _registerInterfaces(bytes4(keccak256('tokenByIndex(bytes4)')^\r\n        keccak256('tokenOfOwnerByIndex(bytes4)')^\r\n        keccak256('totalSupply(bytes4)')));\r\n    }\r\n\r\n\r\n    function _mint(address to, uint256 tokenId) internal override(ERC721) {\r\n        super._mint(to, tokenId);\r\n        // 2things ! \r\n        //1 . add tokens to the owner\r\n        //2. all tokens to our totalsupply - to all tokens\r\n\r\n        _addTokensToAllTokenEnumeration(tokenId);\r\n        _addTokensToOwnerEnumeration(to , tokenId);\r\n\r\n    }\r\n\r\n    //add token to the _alltokens array and set the position of the token indexes\r\n    function _addTokensToAllTokenEnumeration(uint256 tokenId) private {\r\n        _allTokensIndex[tokenId] = _allTokens.length;\r\n        _allTokens.push(tokenId);\r\n    }\r\n\r\n    function _addTokensToOwnerEnumeration(address to, uint256 tokenId) private {\r\n        \r\n        _ownedTokens[to].push(tokenId);\r\n\r\n        _ownedTokensIndex[tokenId] = _ownedTokens[to].length;\r\n\r\n    }\r\n\r\n\r\n    function tokenByIndex(uint256 index) public override view returns(uint256){\r\n        require(index < totalSupply(), 'global index is out of bounds');\r\n        return _allTokens[index];\r\n    }\r\n\r\n    function tokenOfOwnerByIndex(address owner, uint256 index) public override  view returns(uint256) {\r\n        require (index < balanceOf(owner),'owner index is out of bounds');\r\n        return _ownedTokens[owner][index];\r\n    }\r\n\r\n    /// @notice Count NFTs tracked by this contract\r\n    /// @return A count of valid NFTs tracked by this contract, where each one of\r\n    ///  them has an assigned and queryable owner not equal to the zero address\r\n \r\n    function totalSupply() public override view returns (uint256){\r\n        return _allTokens.length;\r\n    }\r\n\r\n}",
  "sourcePath": "D:\\Programmation\\Blockchain\\nft-marketplace-starter-kit-main\\src\\contracts\\ERC721Enumerable.sol",
  "compiler": {
    "name": "solc",
    "version": "0.8.9+commit.e5eed63a.Emscripten.clang"
  },
  "schemaVersion": "3.4.3",
  "updatedAt": "2021-10-14T12:18:07.715Z",
  "devdoc": {
    "kind": "dev",
    "methods": {
      "balanceOf(address)": {
        "details": "NFTs assigned to the zero address are considered invalid, and this  function throws for queries about the zero address.",
        "params": {
          "_owner": "An address for whom to query the balance"
        },
        "returns": {
          "_0": "The number of NFTs owned by `_owner`, possibly zero"
        }
      },
      "ownerOf(uint256)": {
        "details": "NFTs assigned to zero address are considered invalid, and queries  about them do throw.",
        "params": {
          "_tokenId": "The identifier for an NFT"
        },
        "returns": {
          "_0": "The address of the owner of the NFT"
        }
      },
      "totalSupply()": {
        "returns": {
          "_0": "A count of valid NFTs tracked by this contract, where each one of  them has an assigned and queryable owner not equal to the zero address"
        }
      },
      "transferFrom(address,address,uint256)": {
        "details": "Throws unless `msg.sender` is the current owner, an authorized  operator, or the approved address for this NFT. Throws if `_from` is  not the current owner. Throws if `_to` is the zero address. Throws if  `_tokenId` is not a valid NFT.",
        "params": {
          "_from": "The current owner of the NFT",
          "_to": "The new owner",
          "_tokenId": "The NFT to transfer"
        }
      }
    },
    "version": 1
  },
  "userdoc": {
    "kind": "user",
    "methods": {
      "balanceOf(address)": {
        "notice": "Count all NFTs assigned to an owner"
      },
      "ownerOf(uint256)": {
        "notice": "Find the owner of an NFT"
      },
      "totalSupply()": {
        "notice": "Count NFTs tracked by this contract"
      },
      "transferFrom(address,address,uint256)": {
        "notice": "Transfer ownership of an NFT -- THE CALLER IS RESPONSIBLE  TO CONFIRM THAT `_to` IS CAPABLE OF RECEIVING NFTS OR ELSE  THEY MAY BE PERMANENTLY LOST"
      }
    },
    "version": 1
  }
}